:020000040800F2
:10000000C8080020790200089F1D0008791C00081C
:100010009D1D00086F0400086D2500080000000009
:10002000000000000000000000000000A31D000808
:100030002B05000800000000A11D0008A51D0008F8
:10004000930200089302000893020008930200083C
:10005000930200089302000893020008930200082C
:10006000930200089302000893020008710400083C
:100070007D04000893020008930200089302000820
:100080009302000800000000930200089302000899
:1000900093020008930200089302000893020008EC
:1000A00093020008930200089302000893020008DC
:1000B00093020008930200089302000893020008CC
:1000C00093020008930200089302000893020008BC
:1000D00093020008612500089302000893020008BB
:1000E000930200089302000893020008930200089C
:1000F0009302000893020008930200080000000029
:1001000000000000930200080000000093020008B5
:100110009302000800000000930200089302000808
:10012000930200089302000893020008930200085B
:100130009302000800000000000000009302000885
:100140009302000893020008000000000000000075
:10015000000000000000000000000000000000009F
:1001600000000000000000000000000093020008F2
:1001700093020008000000000000000000000000E2
:1001800000000000930200080000000000000000D2
:10019000000000000000000000000000000000005F
:1001A0000000000000000000930200089302000815
:1001B0009302000893020008930200080000000068
:1001C0000000000093020008000000000000000092
:1001D000930200089302000800F002F800F03CF8D7
:1001E0000AA090E8000C82448344AAF10107DA4592
:1001F00001D100F031F8AFF2090EBAE80F0013F0A8
:10020000010F18BFFB1A43F0010318473424000004
:1002100054240000103A24BF78C878C1FAD8520795
:1002200024BF30C830C144BF04680C607047000070
:100230000023002400250026103A28BF78C1FBD8EF
:10024000520728BF30C148BF0B6070471FB502F08E
:10025000D1F91FBD10B510BD00F0CFF81146FFF762
:10026000F5FF02F095F900F0EDF803B4FFF7F2FFA7
:1002700003BC00F0F5F80000094880470948004732
:10028000FEE7FEE7FEE7FEE7FEE7FEE7FEE7FEE746
:10029000FEE7FEE704480549054A064B70470000A3
:1002A000111E0008D9010008C8020020C80800205B
:1002B000C8040020C804002053EA020C00F0698042
:1002C0002DE9F04B4FF00006002B1FBFB3FA83F56A
:1002D00003FA05F424FA05F65E4012BF1643B2FA9B
:1002E00082F502FA05F4C5F120051EBF22FA05FCCD
:1002F00044EA0C04203556EA044C4FEA144418BF73
:10030000641C4FF000084FF00009904271EB030CA1
:1003100039D3002919BFB1FA81F701FA07F6B0FA0B
:1003200080F700FA07F6C7F120071EBF20FA07FC86
:1003300046EA0C062037B6FBF4FCA7EB0507103F96
:1003400007F01F0BCBF120060CFA0BFB2CFA06F67C
:1003500044BFB3460026202FA4BF5E464FF0000BDB
:100360005BEA060C08BF4FF0010B19EB0B09ABFB66
:10037000027C48EB0608C01B06FB02CC0BFB03CC3F
:1003800071EB0C01C1E70B46024641464846BDE809
:10039000F08B13B54FF000004FF00001AFF3008079
:1003A000BDE81C4070474FF0000200B5134694466C
:1003B0009646203922BFA0E80C50A0E80C50B1F1BD
:1003C0002001BFF4F7AF090728BFA0E80C5048BFD1
:1003D0000CC05DF804EB890028BF40F8042B08BF6F
:1003E000704748BF20F8022B11F0804F18BF00F86B
:1003F000012B7047704770477047754600F02CF826
:10040000AE4605006946534620F00700854618B001
:1004100020B5FFF73FFFBDE820404FF000064FF04A
:1004200000074FF000084FF0000B21F00701AC4629
:10043000ACE8C009ACE8C009ACE8C009ACE8C00948
:100440008D46704710B50446AFF300802046BDE8E6
:100450001040FFF70ABF0000004870476802002004
:1004600001491820ABBEFEE7260002007047FEE7F8
:10047000014800F0CEB80000A8010020014800F0BB
:10048000C8B80000080200200D4902688A4201D263
:100490000C4901E00B492031D2B21423083AB2FBD7
:1004A000F3F2436C02F01F0223F00303194481644A
:1004B00004498031C1640121914001657047000009
:1004C00008040240000802400179074A02EB810259
:1004D0004265054A4432491E826501F01F0201212E
:1004E0009140C16570470000FC08024030B5D0E97A
:1004F00013456560446D14B1D0E91645656090F808
:10050000444004F01F050124AC40056C6C60046895
:1005100063608368102B036803D099600068C26031
:1005200030BD9A600068C16030BD704772B6FEE7AA
:1005300010B590F8253000210122022B03D00421B0
:10054000C163012122E003681C6824F00E041C60D2
:10055000836C1C6824F480741C6003681C6824F09D
:1005600001041C6090F84430046C03F01F0302FA8D
:1005700003F36360D0E913345C60436D33B11C68EE
:1005800024F480741C60D0E916345C6080F8252067
:10059000002280F82420084610BD70B590F8252070
:1005A000002401212346022A07D00422C26380F8D6
:1005B000251080F82430012429E00268156825F010
:1005C0000E0515600268156825F001051560826C3E
:1005D000156825F48075156090F84420056C02F0CC
:1005E0001F0201FA02F26A60D0E913255560426DDC
:1005F00032B1156825F480751560D0E9162555606F
:1006000080F8251080F82430816B01B1884720469E
:1006100070BDF0B4016C0C6801680D6890F844205E
:1006200002F01F06042202FA06F3234211D06B07E0
:100630000FD50B689B0603D40B6823F004030B60F3
:1006400090F8441001F01F018A40016C4A60016B70
:100650001DE0022303FA06F727424FF0000C4FF08B
:10066000010218D0AF0716D50C68A40605D40C6893
:1006700024F00A040C6080F8252090F8441001F062
:100680001F018B40016C4B6080F824C0C16A0029B7
:100690001AD0F0BC08470823B340234214D02B07DC
:1006A00012D50B6823F00E030B6090F84410036C16
:1006B00001F01F0102FA01F15960C26380F82520A0
:1006C00080F824C0416BE2E7F0BC704770B50400CD
:1006D0000CD02B4A21681420914209D2294A0A449D
:1006E000B2FBF0F08000606427480AE0012070BD92
:1006F000234A52420A44B2FBF0F080006064204872
:1007000008382064022084F825000A6847F6F07053
:100710008243D4E902031843D4E904352B43184338
:10072000A3691843E3691843236A18431043086018
:100730002046FFF7A9FEA0680025B0F5804F00D144
:100740006560A16C20790860D4E91301416060689C
:10075000401E032808D82046FFF7B6FE606D0560EE
:10076000D4E91601416002E06565A565E565E563CC
:10077000012084F8250084F82450002070BD00007A
:1007800008040240F8FFFDBF0000024070B50446B7
:1007900090F82400002501280CD0012084F82400C2
:1007A00094F825600020012E06D084F8240002254C
:1007B000284670BD022070BD022684F82560E063E3
:1007C0002068066826F0010606602046FFF78EFEC8
:1007D000206B00282068016802D041F00E0106E07D
:1007E00021F0040101602068016841F00A01016004
:1007F000A06C0168C90303D5016841F480710160F0
:10080000606D18B1016841F4807101602068016871
:1008100041F001010160CBE770B5044600F038F902
:100820000546601C02D004484068044400F030F9DA
:10083000401BA042FAD370BD040000202DE9F04F08
:10084000DFF82092002301260324A9F1040B85B0D0
:100850000F2709F1040AABF1040EFAE006FA03F5DA
:100860002A407CD091F804C00CF0030CBCF1010FBD
:1008700002D0BCF1020F26D1D0F808C0CDF800C0DC
:100880004FEA430C04FA0CF8CDF810C0DDF800C0B4
:100890002CEA080CCDF800C0D1F80C80DDF810C0AF
:1008A00008FA0CF8DDF800C048EA0C08C0F8088027
:1008B000D0F804C02CEA050C0D79C5F300159D4055
:1008C00045EA0C0545600D79ED43AD070ED0C568CE
:1008D0004FEA430804FA08FC25EA0C05D1F808C0E1
:1008E0000CFA08FC4CEA050CC0F80CC00D7905F0B8
:1008F0000305022D16D1DD0800EB850CCDF808C0EC
:10090000DCF820805D074FEAD56C07FA0CF528EA81
:1009100005080D6905FA0CF5DDF808C045EA08057B
:10092000CCF8205005684FEA430CCDF808C004FA13
:100930000CFC25EA0C0591F804C00CF00308DDF866
:1009400008C008FA0CF848EA0508C0F800804D68AD
:1009500015F4403F7CD0444DD5F860C000E077E00E
:100960004CF0010CC5F860C02D6E23F0030C05F0AF
:10097000010500953D4D65440295AD684FEA837CC5
:100980004FEA1C7807FA08FC25EA0C05B0F1904FF5
:1009900006D0DFF8DCC0604505D14FF0010C20E047
:1009A0004FF0000C1DE0DFF8CCC0604502D14FF0E5
:1009B000020C16E0DFF8C0C0604502D14FF0030C16
:1009C0000FE0DFF8B8C0604502D14FF0040C08E03A
:1009D000DFF8ACC0604502D14FF0050C01E04FF0EC
:1009E000060C0CFA08FC4CEA050C029DC5F808C080
:1009F000D9F80050CC46D1F8048095435FEAC82866
:100A000000D51543CCF80050DAF80050D446D1F8A0
:100A1000048095435FEA882800D51543CCF8005040
:100A2000DBF80050DC46D1F8048095435FEA883853
:100A300000D51543CCF80050DEF80050F446D1F84C
:100A4000048095435FEAC83800D51543CCF80050C0
:100A50005B1C0A6832FA03F57FF400AF05B0BDE80D
:100A6000F08F000008040140001002400000014027
:100A70000004004800080048000C0048001000482E
:100A8000001400480AB1816170478162704700001C
:100A90000148806870470000040000200248816817
:100AA00042681144816070470400002010B50024A2
:100AB000032000F073F80F2000F008F808B10124BB
:100AC00001E000F025F8204610BD000070B50E4E84
:100AD00005460024706898B14FF47A71B1FBF0F0CC
:100AE0000A490968B1FBF0F000F060FD40B9102D33
:100AF00006D200222946501E00F030F8356000E092
:100B00000124204670BD00000400002010000020D9
:100B10000A4882B0016E41F001010166016E01F0E8
:100B200001010091816D41F080518165806D00F07F
:100B30008050009002B000F0A1B800000010024008
:100B4000002809DB00F01F020121914040098000CC
:100B500000F1E020C0F8001170470000F0B40E4B27
:100B60001B680C46C3F30223C3F10705042D00D90B
:100B70000425191D072901D2002300E0DB1E0126F0
:100B800006FA05F1491E214099409E40761E164006
:100B90003143F0BC01F0EBBC0CED00E0064900F085
:100BA000070208684FF6FF03184040EA0220034A94
:100BB00010430860704700000CED00E00000FA05EB
:100BC0002B492C4B0A6832214A432B4940B1B0F5DE
:100BD000007F086829D020F4C06040F480602CE0D9
:100BE0000868C0F34120022804D051F8800F20F497
:100BF000807022E0D1F8800020F48070C1F880007D
:100C0000086820F4C06040F400700860B2FBF3F0A4
:100C1000401C00E0401E4A69520501D50028F9D168
:100C2000486940050AD503207047C0F341200228D7
:100C300006D051F8800F40F48070086000207047A3
:100C4000D1F8800040F48070C1F88000086820F47A
:100C5000C06040F400700860B2FBF3F0401C00E09C
:100C6000401E4A695205DBD50028F9D1D8E70000BB
:100C70001000002040420F000070004002488168D0
:100C800041F4804181607047007000402DE9F843D5
:100C90000446006800269D4D00035ED5A86D002720
:100CA000C00008D4A86D40F08050A865A86D012749
:100CB00000F080500090DFF85892D9F8001041F40D
:100CC0008071C9F80010FFF7E3FE804606E000BF20
:100CD000FFF7DEFEA0EB080002282BD8D9F80000B1
:100CE000C005F5D5D5F8900010F4407014D0216CF3
:100CF000814211D0D5F89000D5F8901020F44070C2
:100D000041F48031C5F89010D5F8901021F480316D
:100D1000C5F89010C5F89000C00711D0FFF7B8FED5
:100D2000804641F2883907E0FFF7B2FEA0EB0801E8
:100D3000494501D903260BE0D5F890008007F3D58B
:100D4000D5F89000216C20F440700843C5F890005D
:100D50001FB1A86D20F08050A8652078C00707D08B
:100D6000D5F88800616820F003000843C5F88800C2
:100D70002078800707D5D5F88800A16820F00C00FE
:100D80000843C5F888002078400707D5D5F88800C3
:100D9000E16820F030000843C5F88800207800079B
:100DA00007D5D5F88800216920F0C0000843C5F8B0
:100DB00088002078800607D5D5F88800616920F47E
:100DC00040600843C5F888002078400607D5D5F86C
:100DD0008800A16920F440500843C5F888002078B5
:100DE000000607D5D5F88800E16920F440400843A3
:100DF000C5F888002088C00507D5D5F88800216A85
:100E000020F440300843C5F888002088800507D5C5
:100E1000D5F88800616A20F440200843C5F88800AE
:100E2000208840050FD5D5F88800A16A20F440102D
:100E30000843C5F88800A06AB0F5801F03D1E868B0
:100E400040F48010E860208800050FD5D5F88800B0
:100E5000E16A20F440000843C5F88800E06AB0F574
:100E6000800F03D1E86840F48010E8602088C00457
:100E70000FD5D5F88800216B20F040700843C5F8E5
:100E80008800206BB0F1807F03D1E86840F48010C7
:100E9000E86020884FF0006180040ED5D5F8880006
:100EA000626B20F040601043C5F88800606B884298
:100EB00003D1E86840F48010E860208840040ED533
:100EC000D5F88800A26B20F040601043C5F8880078
:100ED000A06B884203D1E86840F48010E860208865
:100EE00000040FD5D5F88800E16B20F0405008438E
:100EF000C5F88800E06BB0F1805F03D1E86840F48A
:100F00008030E8603046BDE8F88300000010024001
:100F1000007000402DE9F0470E4605004FF0000735
:100F200025D0DFF8AC81D8F8000000F00F00B04207
:100F30000CD2D8F8001021F00F013143C8F800108E
:100F4000D8F8000000F00F00B04210D12968614CC1
:100F5000C80741F2883A5AD06868DFF87C910328C4
:100F600008D0022820682DD0400500282CDB012065
:100F7000BDE8F08720688001F9D5E06800F0030241
:100F8000E068C0F30310401C032A19D0534A00BF85
:100F9000B2FBF0F0E268C2F306225043E268C2F30B
:100FA0004162521C5200B0FBF2F0484517D9A068CC
:100FB00010F0F00F0CD0880711D5A86840B10EE0F2
:100FC000474AE5E78003D0E700F0B6F8484506D980
:100FD000A06820F0F00040F08000A0608027A068AA
:100FE000696820F003000843A060FFF751FD8146C7
:100FF00006E000BFFFF74CFDA0EB090151453AD8D0
:10100000A068696800F00C00B0EB810FF2D128688D
:10101000810714D5400703D5A06840F4E060A060C4
:101020002878000705D5A06820F4605040F4E060FF
:10103000A060A068A96820F0F000084304E0802FB9
:1010400003D1A06820F0F000A060D8F8001040465E
:1010500001F00F01B14216D9016821F00F013143AF
:101060000160FFF715FD074607E000BFFFF710FD21
:10107000C11B514501D903207AE7D8F8000000F0E0
:101080000F00B042F2D12878400705D5A068E96882
:1010900020F4E0600843A0602878000706D5A06827
:1010A000296920F4605040EAC100A06000F044F8D3
:1010B000A1680C4AC1F30311515C01F01F01C84043
:1010C0000949086009480068BDE8F047FFF7FEBC21
:1010D000002002400010024000B4C4040024F400C8
:1010E00000366E01262600081000002004000020B3
:1010F0000548064900688968054AC1F30221515C28
:1011000001F01F01C840704710000020001002408D
:10111000362600080548064900688968054AC1F373
:10112000C221515C01F01F01C8407047100000202F
:101130000010024036260008184910B58868C0F330
:1011400081021748012A0BD08A68164BC2F381022C
:10115000022A06D08A68C2F38102032A03D0002043
:1011600010BD184610BDCA6802F00304CA68C2F375
:101170000312521C032C02D0B0FBF2F001E0B3FBCF
:10118000F2F0CA68C968C2F306225043C1F3416154
:10119000491C4900B0FBF1F010BD000000100240F6
:1011A0000024F40000366E012DE9F84304007AD0E3
:1011B0002078F84DC00747D0A868E96800F00C0017
:1011C00001F003010C2802D0082817D001E0032900
:1011D00014D06068B0F5803F17D0B0F5A02F286814
:1011E00017D020F480302860286820F48020286000
:1011F0006068E0B1FFF74CFC064614E02868800305
:1012000022D560680028D2D01EE0286840F48030E3
:10121000EDE740F480202860F7E700BFFFF738FCD7
:10122000801B642870D828688003F7D50CE0FFF78E
:101230002FFC064605E000BFFFF72AFC801B642850
:10124000F0D828688003F7D4207880074CD5A868A8
:10125000E96800F00C0001F003010C2802D004281A
:101260000DD001E002290AD0E068002828682BD0C0
:1012700040F480702860FFF70BFC064619E02868F0
:10128000400502D5E068002891D06868217C20F0F4
:10129000FE4040EA01606860BF480068FFF716FC46
:1012A000002800D120E072E1FFF7F2FB801B02284A
:1012B000B8D828684005F7D56868217C20F0FE4042
:1012C00040EA016068600FE020F480702860FFF75A
:1012D000DFFB064605E000BFFFF7DAFB801B0228B4
:1012E000A0D828684005F7D42078000729D5606980
:1012F0000028D5F8940013D040F00100C5F8940000
:10130000FFF7C6FB064606E090E000BFFFF7C0FB14
:10131000801B022886D8D5F894008007F6D510E007
:1013200020F00100C5F89400FFF7B2FB064604E088
:10133000FFF7AEFB801B022878D8D5F89400800711
:10134000F6D42078400761D5A86D0026C00008D4E7
:10135000A86D40F08050A865A86D012600F080506F
:1013600000908E480168C90511D40168804641F497
:1013700080710160FFF78CFB074604E0FFF788FBF4
:10138000C01B022852D8D8F80000C005F6D5A068C6
:10139000012815D00528D5F8900016D020F00100BE
:1013A000C5F89000D5F8900020F00400C5F8900032
:1013B000A06841F28838B8B1FFF76AFB07460EE033
:1013C000D5F8900040F00100F0E740F00400C5F8C7
:1013D0009000F5E7FFF75CFBC11B414526D8D5F827
:1013E00090008007F6D50CE0FFF752FB074604E0BB
:1013F000FFF74EFBC11B414518D8D5F89000800778
:10140000F6D41EB1A86D20F08050A8652078800623
:1014100029D5A0690028D5F8980013D040F0010024
:10142000C5F89800FFF734FB064606E075E000BFFC
:10143000FFF72EFB801B02286FD8D5F89800800795
:10144000F6D510E020F00100C5F89800FFF720FB6A
:10145000064604E0FFF71CFB801B02285DD8D5F888
:1014600098008007F6D4E069F0B3A968C1F3810160
:1014700003295DD00228286820F08070286003D0FE
:10148000FFF706FB04464BE0FFF702FB064604E0CD
:10149000FFF7FEFA801B02283FD828688001F7D4A6
:1014A000F4E908016FF00F0202EB01110843218AF1
:1014B0005204490802EB4151A26841EA0221084363
:1014C000217D4FF07E42490802EB41610843217BB8
:1014D00040EAC160E968324A11400843E860286880
:1014E00040F08070286000E05EE0E86840F08070C6
:1014F000E860FFF7CDFA044605E000BFFFF7C8FA41
:10150000001B022809D828688001F7D54CE000BFED
:10151000FFF7BEFA001B022802D90320BDE8F883BA
:1015200028688001F4D4E8681E490840E8603BE080
:101530000128F3D0E868226A00F00301914226D125
:10154000616A00F0F0020901103991421FD1A26ACC
:1015500000F4FE41B1EB022F19D194F82C2000F0D9
:101560007841B1EBC26F12D1218E00F4C00249085C
:101570004905A1F50011914209D194F8341000F009
:10158000C06049084906A1F1007181420CD00120D8
:10159000C4E700000010024004000020007000407A
:1015A0000C809F01FCFFEEFE0020B7E710B5401E47
:1015B000B0F1807F01D3012010BD4FF0E0246061C5
:1015C0000F21601700F0D3FF0020A06107202061E9
:1015D000002010BD90F88410012918D0012180F856
:1015E00084102421C0F8881001680A680B6823F071
:1015F00001030B6022F0005100224266036819606B
:101600002021C0F8881080F88420104670470220FE
:10161000704710B50446D0F88C00202801D0022075
:1016200010BD61B15AB10120E0660020206720465C
:1016300000F0F8FE0028F3D1E16E012901D001206D
:1016400010BD226810211162226852E8001F41F08B
:10165000100142E80013002BF6D110BD10B5174C55
:1016600084421CD10A461649204600F0BBFA1448B1
:101670000178012913D18178052910D140781149C9
:10168000022804D0032805D0042806D007E04FF430
:101690007A7003E04FF4967000E0642008604FF425
:1016A000807207490548FFF7B4FFD4F8800000684E
:1016B000016821F00401016010BD00001401002048
:1016C0001400002000000020704770B5044690F818
:1016D000840001281DD0012084F884002420C4F84F
:1016E000880020680568026822F001020260206814
:1016F000826822F060620A438260204600F090FB1C
:10170000206805602020C4F88800002084F8840048
:1017100070BD022070BD70B5044690F884000128A9
:101720001DD0012084F884002420C4F8880020689B
:101730000568026822F0010202602068826822F0D7
:1017400060420A438260204600F06AFB2068056020
:101750002020C4F88800002084F8840070BD022096
:1017600070BD7047704770472DE9F041036804462B
:10177000D86919689A6840F60F0528424FF00005AD
:101780004FF002060AD187067ED501F0200702F04D
:10179000805C57EA0C0777D0616F42E1B64FDFF803
:1017A000DCC2174001EA0C0C57EA0C0C6CD05FEA63
:1017B000C07C0CD05FEAC15C09D54FF0010CC3F8C6
:1017C00020C0D4F8903043F00103C4F89030830770
:1017D00009D5D30707D023681E62D4F8903043F0B0
:1017E0000403C4F8903043070AD5D30708D026680D
:1017F00004233362D4F8903043F00203C4F89030ED
:1018000003070CD501F020033B4308D026680823CA
:101810003362D4F8903043F00803C4F890300305E5
:101820000BD54B0109D526684FF400633362D4F819
:10183000903043F02003C4F89030D4F89030002B5F
:101840003DD0800609D501F0200002F08051084308
:1018500003D0616F09B120468847D4F89000216811
:101860008968490602D410F0280F2AD0204600F0DB
:101870005DFC2068806840061ED52068083050E86E
:10188000001F21F0400100E021E040E80012002AA2
:10189000F3D1D4F8800078B179498163D4F880001D
:1018A000FEF77BFE00280AD0D4F88000816B00E0B0
:1018B0002046BDE8F04108472046FFF754FFBDE849
:1018C000F0812046FFF74FFFC4F89050F7E7D4F8B7
:1018D0006CC02027BCF1010F7ED15FEAC06C7BD5C4
:1018E0005FEAC16C78D510201862206880684006D5
:1018F00051D5D4F880100A6850680004000C3ED01E
:10190000B4F85C3083423AD9A4F85E0008680068F5
:1019100080062CD4216851E8000F20F4807041E843
:101920000002002AF6D12068083050E8001F21F09C
:10193000010140E80012002AF5D12068083050E883
:10194000001F21F0400140E80012002AF5D1C4F840
:101950008C70E566216851E8000F20F0100041E826
:101960000002002AF6D1D4F88000FEF7E1FD2667D8
:10197000B4F85C00B4F85E10401A81B207E0B4F825
:101980005C1081429BD11068800698D5266720465E
:10199000FFF764FE93E7B4F85C00B4F85E10401AF9
:1019A00081B2B4F85E00002889D0002987D022686F
:1019B00052E8000F20F4907042E80003002BF6D1AB
:1019C0002D4BDB432068083050E8002F1A4040E8D8
:1019D000002CBCF1000F00E00EE0F3D1C4F88C70D5
:1019E000E5666567206850E8002F22F0100240E8A5
:1019F0000023002BF6D1C9E7C60209D5560207D548
:101A00004FF4801018622046BDE8F041FFF7AABEEF
:101A100003060AD501F0800302F40002134304D048
:101A2000A16F00297FF444AF49E7420611D54A0669
:101A30000FD52046016851E8002F22F0400241E80E
:101A40000023002BF6D1C0F88870856700F012F9EA
:101A500035E7020206D54A0004D52046BDE8F0412C
:101A6000FFF77FBEC00195D5002993DA2046BDE877
:101A7000F041FFF729BE0000010000102001000422
:101A8000D91F000810B5040003D0D4F8880010B1A5
:101A900007E0012010BD002084F88400204600F0FB
:101AA00027F82420C4F888002068016821F001018B
:101AB0000160A06A10B1204600F0D4F9204600F081
:101AC00077FB0128E6D02068416821F4904141600D
:101AD0002068816821F02A0181602068016841F056
:101AE000010101602046BDE8104000F01FBA00006F
:101AF000F0B597B00646142111A8FEF754FC442116
:101B00006846FEF750FC3249306888425ED10120B9
:101B10000024CDE900046846FFF7B8F808B1FEF7E5
:101B200005FD2C48016E41F480410166016E01F40F
:101B300080411691C16C41F00101C164C06C11A9D2
:101B400000F0010016904FF4C06011900220CDE922
:101B500012040720CDE914404FF09040FEF76EFECE
:101B60001E4D1D4805F108012860192068601020ED
:101B7000802781E891006C61AC61EC6128462C62A1
:101B8000FEF7A4FD08B1FEF7D1FCF567AE62134D78
:101B900011486035143028601820C5E90104C5E9F2
:101BA00003476C61AC61EC6128462C62FEF78EFD48
:101BB00008B1FEF7BBFCC6F8805000221146252074
:101BC000AE62FEF7CBFF2520FEF7BAFF17B0F0BDDF
:101BD000003801400010024008000240A801002027
:101BE0007047704770B50446D0F88800202801D0AF
:101BF000022070BD39B332B32165A4F85420A4F893
:101C000056200021C4F890102120C4F88800E06F0D
:101C1000D8B1154BC362E36F14481863E36F1448DF
:101C20005863E06F134681632068E56F00F1280276
:101C30002846216DFEF7AAFD38B11020C4F89000A7
:101C40002020C4F88800012070BD2168402008626F
:101C50002068083050E8001F41F0800140E8001281
:101C6000002AF5D1002070BDDF20000821210008E6
:101C7000E91F000870477047FEE70000114808B5EB
:101C8000816C41F004018164816C01F004010091D8
:101C9000816C41F001018164806C002200F0010040
:101CA000009011460B20FEF759FF0B20FEF748FF6E
:101CB000002211460C20FEF751FFBDE808400C2021
:101CC000FEF73EBF0010024010B586B014216846F2
:101CD000FEF769FB1648C16C41F00401C164C16C98
:101CE00001F004010591C16C41F02001C164C16C97
:101CF00001F020010591C16C41F00101C164C06C8B
:101D00004FF0904400F00100059000222021204671
:101D1000FEF7B8FE2020009001200021CDE901014E
:101D2000039169462046FEF789FD06B010BD00000C
:101D300000100240184810B5164901604FF4E13117
:101D40004160002181600C22C160C0E90412816100
:101D5000C161016241628162FFF794FE08B1FEF742
:101D6000E5FB00210C48FFF7D6FC08B1FEF7DEFBCF
:101D700000210948FFF7A9FC08B1FEF7D7FB064888
:101D8000FFF728FC002803D0BDE81040FEF7CEBBCB
:101D900010BD00000038014014010020FEE7FEE7FE
:101DA00070477047FEF77ABE10B594B03821684688
:101DB000FEF7F9FA14210EA8FEF7F5FA0020FEF757
:101DC000FFFE012000900004032406210190CDE9CC
:101DD000084102205521CDE90A1007900C900D9082
:101DE0006846FFF7E1F908B172B6FEE70F20CDE9CA
:101DF0000E04002010901190129004210EA8FFF7FD
:101E000089F8002801D072B6FEE714B010BD0000BA
:101E10000248016841F470010160704788ED00E0FC
:101E200030B5416EB9B1026891689268C1F3426100
:101E30000B4B520F9C5CE50003F10804A25CB5FB60
:101E4000F2F2A0F86A205A5C615CD200B2FBF1F1B8
:101E5000A0F8681030BD0121A0F86A10F8E7000072
:101E60001626000890F82810090706D501684A6868
:101E7000836B22F400421A434A6090F82810C90785
:101E800006D001684A68C36A22F400321A434A60E5
:101E900090F82810890706D501684A68036B22F478
:101EA00080321A434A6090F82810490706D5016825
:101EB0004A68436B22F480221A434A6090F8281043
:101EC000C90606D501688A68C36B22F480521A439A
:101ED0008A6090F82810890606D501688A68036C24
:101EE00022F400521A438A6090F82810490611D54E
:101EF00001684A68436C22F480121A434A60416CBC
:101F0000B1F5801F06D101684A68836C22F4C002D3
:101F10001A434A6090F82810090606D501684A68F5
:101F2000C06C22F4002202434A6070472DE9F84356
:101F300000260446C0F89060FEF7AAFD804620689F
:101F400000684FF0200500076FF07E4713D5434629
:101F5000002229042046009700F0B8FA58B1216801
:101F600051E8000F20F0800041E80002002AF6D17D
:101F7000C4F8885021E020680068400722D5434615
:101F800000224FF480012046009700F09FFAC8B16C
:101F9000216851E8000F20F4907041E80002002A07
:101FA000F6D12068083050E8001F21F0010140E818
:101FB0000012002AF5D1C4F88C5084F88460032004
:101FC000BDE8F883C4F88850C4F88C5044F86C6FAE
:101FD000666026760020F3E710B5806A0021A0F83D
:101FE0005E10FFF7C0FB10BD70B5846AD4F888009E
:101FF000D4F88C50216889684FF00006090606D590
:10200000212804D1A4F85660204600F0B9F82068D1
:102010008068400606D5222D04D1A4F85E602046D3
:1020200000F084F8D4F8900040F01000C4F890005C
:102030002046FFF798FB70BD10B50146806A09681D
:1020400009684FF0000289062DD4A0F85E200368CD
:1020500053E8001F21F4807143E80014002CF6D1EE
:102060000168083151E8003F23F0010341E80034E2
:10207000002CF5D10168083151E8003F23F04003FE
:1020800041E80034002CF5D12021C0F88C10C16E3D
:10209000012908D1016851E8003F23F0100341E80D
:1020A0000034002CF6D10267C16E012902D0FFF77F
:1020B00097FD10BDB0F85C10FFF7D0FA10BD10B559
:1020C000806A01210167C16E012902D0FFF789FDF5
:1020D00010BDB0F85C104908FFF7C0FA10BD10B58C
:1020E0000146806A09680968890616D40021A0F8AB
:1020F00056100168083151E8002F22F0800241E8B3
:102100000023002BF5D1026852E8001F41F0400186
:1021100042E80013002BF6D110BDFFF7ABFD10BD58
:1021200010B5806AFFF7A7FD10BD000010B502686A
:1021300052E8001F21F4907142E80013002BF6D101
:102140000E4B0268083252E8001F194042E80014A2
:10215000002CF6D1C16E012908D1016851E8002F89
:1021600022F0100241E80023002BF6D12021C0F814
:102170008C100021C166416710BD0000FEFFFFEF1B
:10218000026852E8001F21F0C00142E80013002B52
:10219000F6D10168083151E8002F22F4000241E82D
:1021A0000023002BF5D12021C0F8881070470000D3
:1021B0002DE9F0410446016880682269E369104313
:1021C000626900251A431043DFF82CC20A688B4B62
:1021D0001A4002430A6020684168E26821F44051D5
:1021E000114341602168A069614501D0226A104312
:1021F0008A68834B1A4002438A602068C16A626A17
:1022000021F00F011143C1627E4923687E488B4251
:102210000DD1D0F8880010F0030006D0012855D069
:10222000022842D003283FD152E001203DE0774907
:102230008B420BD1D0F8880010F00C0035D0042868
:1022400033D0082840D00C282ED141E070498B4271
:102250000BD1D0F8880010F0300026D0102835D0EF
:10226000202831D030281FD132E06A498B420BD16F
:10227000D0F8880010F0C00017D0402826D0802861
:1022800022D0C02810D123E063450DD1D0F88800BA
:1022900010F4406009D0B0F5806F17D0B0F5006F32
:1022A00012D0B0F5406F13D010205B495B4F002671
:1022B0004FF4004263453BD160B1022813D004289B
:1022C0000BD0082872D10DE00220EEE70420ECE7E5
:1022D0000820EAE7FEF70CFF01E0FEF72DFF010002
:1022E00001D17CE01146606A37F810206768B1FBC5
:1022F000F2F007EB4703834270D8B0EB073F6DD88D
:10230000002308461946FDF7D7FF090241EA10618C
:1023100002027808101871413A460023FDF7CCFFFD
:102320003F4AA0F54071914258D82168C86056E0F4
:10233000E3694FF6EF7893422CD109284ED2DFE8BB
:1023400000F00508114D0D4D4D4D1000FEF7D0FE6B
:1023500001E0FEF7DFFE010004D140E0FEF7ECFEF5
:10236000F9E71146606A37F81000B1FBF0F0410060
:10237000606801EB5001B1FBF0F0A0F110014145A4
:102380002CD84FF6F0710140C0F3420001432068A1
:10239000C16024E0092821D2DFE800F005091220FD
:1023A0000E2020201100FEF7A3FE02E016E0FEF74B
:1023B000B1FE010004D112E0FEF7BEFEF9E71146BE
:1023C000606A37F81000B1FBF0F1606801EB500172
:1023D000B1FBF0F0A0F1100141450AD9012501201F
:1023E000A4F86A0024F8680F2846E6602661BDE874
:1023F000F08180B299E7000000800040F369FFCFD0
:10240000FFF4FF110038014000100240004400407A
:1024100000480040004C00400024F400FE25000865
:10242000FFFC0F0070B58165A0F85C200021044618
:10243000C0F890102220C4F88C00D4F88000F0B1CD
:102440001F4BC362D4F880301E481863D4F8803024
:102450001D485863D4F8800013468163A56D216838
:102460002A462431D4F88000FEF790F938B11020C4
:10247000C4F890002020C4F88C00012070BD2069B1
:1024800040B1216851E8000F40F4807041E800023B
:10249000002AF6D12068083050E8001F41F0010101
:1024A00040E80012002AF5D12068083050E8001FEB
:1024B00041F0400140E80012002AF5D1002070BD33
:1024C00039200008BF200008E91F00082DE9F04767
:1024D000994617460D4604464FF00008089E33E023
:1024E000701C31D0FEF7D4FAA0EB0900B04218D826
:1024F000BEB120680168490726D5802D24D0402D23
:1025000022D0C169C94309070DD4082505622046B8
:10251000FFF70CFEC4F8905084F884800120BDE8D9
:10252000F0870320FBE7C069C04300050CD4216895
:102530004FF4006008622046FFF7F8FD2020C4F841
:10254000900084F88480ECE72068C06935EA0000D8
:1025500004D00020B842C3D00020E0E70120F9E712
:102560000148FFF701B9000014010020FEE7090748
:10257000090E002804DB00F1E02080F80014704709
:1025800000F00F0000F1E02080F8141D70470000FB
:10259000FEF78CFAFFF708FCFFF796FBFFF76EFBE0
:1025A000FFF7C8FB4FF480720F491048FFF731F86E
:1025B0000E48D0F880000068016821F00401016035
:1025C0000B4C4FF09045012220212846FEF75AFA85
:1025D0002068FEF721F9002220212846FEF752FA52
:1025E0002068FEF719F9EEE714000020140100201E
:1025F000000000204FF04070E1EE100A704701002B
:1026000002000400060008000A000C001000200070
:1026100040008000000101010103070100000804DF
:102620000204080101010000000000000000010296
:10263000030406070809000000000102030400006B
:1026400060260008000000201400000014020008AA
:102650007426000814000020B408000030020008AE
:10266000E80300001000000001000000000000006E
:042670000024F4004E
:04000005080001D915
:00000001FF
